S01E0000536F6C6973496F545F534B555F33315F566572303131312E686578F4
S113000000300020C1000000995400009954000001
S1130010FFFFFFFFFFFFFFFFFFFFFFFFFFFFFFFFEC
S1130020FFFFFFFFFFFFFFFFFFFFFFFF99540000EB
S1130030FFFFFFFFFFFFFFFF9954000099540000EA
S113004099540000995400009954000099540000F8
S1130050FFFFFFFF995400009954000099540000D9
S113006099540000995400009954000099540000D8
S113007099540000995400009954000099540000C8
S113008099540000995400009954000099540000B8
S1130090995400009954000099540000FFFFFFFF99
S11300A09954000099540000995400009954000098
S11300B099540000FFFFFFFF995400009954000079
S11300C00A4C236801330ED0094B1B78AA2B01D1AB
S11300D000F016F8074A0849084BD150064C20682E
S11300E085466068874600F00BF8C046042000008F
S11300F000F0FF1F00E000E000200000080D0000F9
S11301000E4B55221A60AA221A6072B60C4B0D4A85
S11301100D49D1500D4B00210D4A02C39342FCD12D
S11301200C4A013A0C4B0D4802CA02C38342FBD16C
S11301300B4A0C4B1A6000F06BF9C0460481044072
S1130140080D000000E000E00000000000F0FF1FC8
S113015000300020690100006002002084020020B9
S1130160610200208402002090B500AF054C80237A
S11301702370054BE418C0462378DBB2002BFBD078
S1130180BD4690BD000002400000881300B5054B39
S11301901A7952B20023002A02DA024BD8710123E1
S11301A0181C00BD00A0064008B50D4B1B78002BA1
S11301B00AD10D20FFF7EAFF002301280ED1012206
S11301C0074B1A70002309E00A20FFF7DFFF002322
S11301D0012803D10022024B1A700123181C08BD08
S11301E08802002080B500AF064B1B78DBB2012BE0
S11301F003D1054BDB79DBB200E00023181CBD46BC
S113020080BDC04604A0865200A0064090B583B0CD
S113021000AFFC1DFFF7E6FF031C2370FB1D1B78DA
S1130220002B01D100231BE0FB1D1B782F2B13D9BE
S1130230FB1D1B78392B03D9FB1D1B78402B0BD9D5
S1130240FB1D1B78462B03D9FB1D1B78602B03D9A0
S1130250FB1D1B78662B01D9FF2301E0FB1D1B78D6
S1130260181CBD4603B090BD80B500AF031C303BE5
S1130270DBB2092B01D9073BDBB20F2B01D9203BA1
S1130280DBB2181CBD4680BD80B500AF031C602BDB
S10F029001D9203BDBB2181CBD4680BD28
S1130400FFFFFFFFFFFFFFFFFEFFFFFF7EFFFFFF7A
S1130410F0B55F4656464D464446F0B495B000AF3D
S1130420BE4B00221A7000253B1C483300221A7070
S11304300022904600240023994600E0C046B84AB2
S11304409246552352461360AA2352461360002D48
S113045016D1002C06D1FFF7A7FE031C012BEDD10A
S11304602824EBE72A20FFF791FE031C012BE5D19A
S1130470631EDCB2002CE1D12824AA4E0125DDE75D
S1130480012D0CD13378181CFFF780FE031C012BBF
S1130490D4D101363378002BD0D10225CEE7022DFA
S11304A011D1002C08D02A20FFF770FE031C012B69
S11304B0C4D1631EDCB2C1E7FFF776FE031C012B37
S11304C0BCD10325BAE7032D0AD1974E3378181C03
S11304D0FFF75CFE031C012BB0D101360425ADE708
S11304E0042D0CD13378181CFFF750FE031C012B8C
S11304F0A4D101363378002BA0D105259EE7052D24
S113050058D18A4B1A7801218A431A704F23DB1978
S11305109A46FFF767FE031C524613703B1C4F3389
S11305201B78002B8AD03B1C4F331B781F2B85D99B
S1130530C0463B1C4F331B78181CFFF727FE031CD7
S1130540002BF6D04F23DB199A463B1C4F331B7804
S1130550181CFFF799FE031C524613703B1C4F33C3
S11305601B783F2B02D1724E062567E73B1C4F33A5
S11305701B78502B04D1002398466E4E07255DE767
S11305803B1C4F331B78552B09D100229046674BF7
S11305901A7801210A431A70674E07254EE73B1C5F
S11305A04F331B78472B02D1FFF78AFD46E7634E92
S11305B0062543E7062D0ED13378181CFFF7E6FD18
S11305C0031C012B00D039E701363378002B00D00F
S11305D034E7032532E7072D23D13378181CFFF7BE
S11305E0D5FD031C012B00D028E701363378002BFE
S11305F000D023E74D4B1A7801231340DBB2002BC4
S113060005D04F4B802292015A60772404E04C4B72
S1130610802292015A607824494B0922DA71082514
S11306200CE7082D30D1002C18D0631EDCB2454BEA
S11306301B689847424B424A5279D2B20432D2B232
S11306405A713F4B5B79DBB2002B00D0F6E63C4B92
S11306509A79D2B20132D2B29A71EFE6334B1A7858
S113066001231340DBB2002B04D0772480239B01A9
S11306709B4603E0782480239B019B463B1C4E331E
S113068001221A700925D9E6092D2ED1002C14D087
S1130690631EDCB280235B009A460AE05A46136864
S11306A0013303D03B1C4E3300221A7001235B42FA
S11306B09A445246002AF1D116E03B1C4E331B7873
S11306C0002B01D1204E00E0204E3B1C4F331B7801
S11306D0502B04D03B1C4F331B78552B01D10A25DA
S11306E002E0062500F07AFBA8E60A2D32D1337821
S11306F0181CFFF74BFD031C012B00D09EE60136AE
S11307003378002B00D099E63B1C4E331B78002B2A
S113071001D1032592E60E4E0B258FE600F0FF1F54
S113072004810440001F0000141F000004F0FF1F98
S11307302C1F0000701F00007C1F0000201F000001
S11307400000024084020020981F00008C1F00005B
S1130750A41F00000B2D1DD13378181CFFF716FDC4
S1130760031C012B00D069E601363378002B00D03E
S113077064E6402406E0231C013B3A1DFF21D154CA
S1130780631EDCB2002CF6D10C253B1C483300223E
S11307901A7053E60C2D00D0F2E13B1C48331B7851
S11307A0002B0AD1FFF71EFD031C532B00D045E696
S11307B03B1C483301221A7040E63B1C48331B782B
S11307C0012B44D1FFF70EFD031C1C1C002C00D18F
S11307D034E6312C08D13B1C4D3301221A703B1CEA
S11307E0483302221A7029E6322C08D13B1C4D33BF
S11307F002221A703B1C483302221A701EE6332C64
S113080008D13B1C4D3303221A703B1C483302228F
S11308101A7013E6372C05D13B1C4C330D221A7089
S11308200F250BE6382C05D13B1C4C330A221A70D9
S11308300F2503E6392C05D13B1C4C3308221A70D2
S11308400F25FBE53B1C483300221A70F6E53B1CE0
S113085048331B78022B1CD1FFF7D8FC031C1C1C4B
S1130860FF2C05D13B1C4B333F221A701025E5E5C4
S1130870002C00D1E2E5201CFFF7F6FC031C1A1C37
S11308803B1C4C3312011A703B1C483303221A7070
S1130890D4E53B1C48331B78032B2ED1FFF7B6FC61
S11308A0031C1C1CFF2C05D13B1C4B333F221A702C
S11308B01025C3E5002C00D1C0E5201CFFF7D4FCB3
S11308C0031C191C3B1C4C333A1C4C3212788A18FA
S11308D01A703B1C4A333A1C4C3212781A703B1C77
S11308E04C333A1C4C321278013A1A7000237B6460
S11308F03B1C483304221A70A0E53B1C48331B7888
S1130900042B1CD1FFF782FC031C1C1CFF2C05D1FB
S11309103B1C4B333F221A7010258FE5002C00D16D
S11309208CE5201CFFF7A0FC031C1A1C3B1C4B335A
S113093012011A703B1C483305221A707EE53B1CD9
S113094048331B78052B4ED1FFF760FC031C1C1C9D
S1130950FF2C05D13B1C4B333F221A7010256DE54B
S1130960002C00D16AE5201CFFF77EFC031C191C37
S11309703B1C4B333A1C4B3212788A181A707B6C2E
S11309801B027B647A6C3B1C4B331B78D3187B644F
S11309903B1C4A33391C4A313A1C4B3209781278D1
S11309A08A181A703B1C4C333A1C4C321278013AA8
S11309B01A703B1C4D331B78002B0BD03B1C4D3362
S11309C03A1C4D321278013A1A703B1C4833042207
S11309D01A7033E53B1C493300221A703B1C483320
S11309E006221A702AE53B1C48331B78062B26D1B5
S11309F03B1C4C331B78002B04D13B1C483308228E
S1130A001A701BE5FFF702FC031C1C1CFF2C05D10C
S1130A103B1C4B333F221A7010250FE5002C00D1EC
S1130A200CE5201CFFF720FC031C1A1C3B1C4B3359
S1130A3012011A703B1C483307221A70FEE43B1C57
S1130A4048331B78072B3FD1FFF7E0FB031C1C1C2A
S1130A50FF2C05D13B1C4B333F221A701025EDE4CB
S1130A60002C00D1EAE4201CFFF7FEFB031C191C38
S1130A703B1C4B333A1C4B3212788A181A703B1CBD
S1130A8049331B783A1D391C4B310978D1543B1C2E
S1130A9049333A1C4932127801321A703B1C4A33EA
S1130AA0391C4A313A1C4B32097812788A181A7068
S1130AB03B1C4C333A1C4C321278013A1A703B1CE2
S1130AC0483306221A70B9E43B1C48331B78082BC0
S1130AD01CD1FFF79BFB031C1C1CFF2C05D13B1CEA
S1130AE04B333F221A701025A8E4002C00D1A5E452
S1130AF0201CFFF7B9FB031C1A1C3B1C4B331201CF
S1130B001A703B1C483309221A7097E43B1C483383
S1130B101B78092B00D091E4FFF778FB031C1C1C05
S1130B20FF2C05D13B1C4B333F221A70102585E462
S1130B30002C00D182E4201CFFF796FB031C191C37
S1130B403B1C4B333A1C4B3212788A181A703A1CED
S1130B504A323B1C4B3312781B78D318DAB23B1C55
S1130B604B3301321A703B1C4B331B78002B01D1E1
S1130B700D2563E43B1C4B3321221A7010255DE4E0
S1130B800D2D00D0CCE07A6C954B9A4201D80E25FD
S1130B9054E47A6C934B9A4201D90E254EE4924B5D
S1130BA01A7801231340DBB2002B61D07A6C8F4B8F
S1130BB09A4205D903253B1C483300221A703DE4B0
S1130BC08B4B7A6C5A608A4B0622DA71884B3A1C3A
S1130BD04C321278391D8A5C1A723B1C4C333A1C15
S1130BE04C32127801321A70814B3A1C4C32127812
S1130BF0391D8A5C5A723B1C4C333A1C4C321278B5
S1130C0001321A707A4B3A1C4C321278391D8A5CC4
S1130C109A723B1C4C333A1C4C32127801321A70D3
S1130C20734B3A1C4C321278391D8A5CDA723B1CC5
S1130C304C333A1C4C32127801321A706D4B1B68DB
S1130C4098477B6C04337B6404240EE03B1C4933DB
S1130C503A1C49321278013A1A703B1C49331B780A
S1130C60002B00D10E25631EDCB2002CEED1B5E0C2
S1130C705F4B7A6C5A605E4B0622DA715C4B3A1C0D
S1130C804C321278391D8A5C1A723B1C4C333A1C64
S1130C904C32127801321A70554B3A1C4C3212788D
S1130CA0391D8A5C5A723B1C4C333A1C4C32127804
S1130CB001321A704E4B3A1C4C321278391D8A5C40
S1130CC09A723B1C4C333A1C4C32127801321A7023
S1130CD0474B3A1C4C321278391D8A5CDA723B1C41
S1130CE04C333A1C4C32127801321A70414B1B6857
S1130CF098477B6C04337B6404240EE03B1C49332B
S1130D003A1C49321278013A1A703B1C49331B7859
S1130D10002B00D10E25631EDCB2002CEED15DE069
S1130D200E2D25D14346002B07D1FFF73DFA031CB6
S1130D30012B16D12022904613E04B46002B0CD1F8
S1130D403E20FFF723FA031C012B0AD14346013B43
S1130D50DBB298466422914603E04B46013BDBB28A
S1130D6099460C253B1C483300221A70FFF766FB9A
S1130D700F2D24D1FFF736FA031C1C1C002C06D0BF
S1130D803B1C4C333A1C4C321278013A1A703B1C0F
S1130D904C331B78002B01D0FFF750FB164E07E0B5
S1130DA03378181CFFF7F2F9031C012B00D101362C
S1130DB03378002BF4D1FFF783F9FFF73FFB102DB5
S1130DC001D0FFF73BFBFFF70DFA031C1C1C0D2C95
S1130DD001D0FFF733FB0E25FFF730FBFFF72EFBA7
S1130DE0FF1F0000FFFF010004F0FF1FFFFB0100D5
S10F0DF00000024084020020CC1F000020
S1131F000D0A426F6F746C6F616465722076322EB5
S1131F10310D0A000D0A626F6F743E20000000004C
S1131F20203C2D20776861743F00000020436F6DD2
S1131F306D616E64204C6973743A0D0A2050203D23
S1131F402050726F6772616D0D0A2055203D205537
S1131F5070646174652050726F6772616D0D0A2040
S1131F6047203D20476F2052756E0D0A0000000087
S1131F700D0A45726173652E2E2E00000D0A436F03
S1131F8064652045726173652E2E2E005665726954
S1131F9066696564000000004661696C65640D0A49
S1131FA0000000000D0A53656E6420532D526563D2
S1131FB06F72642E2E2E0D0A000000000D0A50725E
S1131FC06F6772616D2E2E2E000000000D0A446FA3
S10B1FD06E650D0A000000001B
S1132000003000202D540000A93E0000A93E00002D
S1132010A93E0000A93E0000A93E0000A93E000020
S1132020A93E0000A93E0000A93E0000A93E000010
S1132030A93E0000A93E0000A93E0000A93E000000
S1132040A93E0000A93E0000A93E0000A93E0000F0
S1132050A93E0000A93E0000A93E0000613E000028
S1132060A93E0000A93E0000A93E0000A93E0000D0
S11320702D4D0000A93E0000A93E0000A93E00002D
S1132080A93E0000A93E0000F1390000A93E00006D
S1132090A93E0000A93E0000A93E0000A93E0000A0
S11320A0A93E0000A93E0000A93E0000A93E000090
S11320B0D95C0000A93E0000A93E0000513E00008A
S11320C002B4714649084900095649008E4402BCCD
S11320D07047C04602B4714649084900095C49008A
S11320E08E4402BC7047C046002934D0012300222C
S11320F010B488422CD301242407A14204D2814283
S113210002D209011B01F8E7E400A14204D2814292
S113211002D249005B00F8E7884201D3401A1A430F
S11321204C08A04202D3001B5C0822438C08A04246
S113213002D3001B9C082243CC08A04202D3001BFC
S1132140DC082243002803D01B0901D00909E3E776
S1132150101C10BC7047002801D00020C04307B4F5
S1132160024802A14018029003BDC046D9000000F5
S11321700029F0D003B5FFF7B9FF0EBC4243891A1A
S11321801847C046002941D010B4041C4C40A44652
S113219001230022002900D54942002800D54042ED
S11321A088422CD301242407A14204D2814202D2C2
S11321B009011B01F8E7E400A14204D2814202D2E2
S11321C049005B00F8E7884201D3401A1A434C08DF
S11321D0A04202D3001B5C0822438C08A04202D315
S11321E0001B9C082243CC08A04202D3001BDC083D
S11321F02243002803D01B0901D00909E3E7101C7E
S11322006446002C00D5404210BC7047002806D01C
S113221003DB0020C043400801E08020000607B42F
S1132220024802A14018029003BDC04619000000F4
S11322300029EBD003B5FFF7A7FF0EBC4243891A70
S11322401847C0467047C0468446101C62468C46F8
S1132250191C634600E0C0461FB500F0C1FB00280E
S113226001D40021C8421FBD10B500F007FB404255
S1132270013010BD10B500F0B3FB002801DB0020D5
S113228010BD012010BDC04610B500F0A9FB002808
S113229001DD002010BD012010BDC04610B500F0C6
S11322A02BFB002801DC002010BD012010BDC0461E
S11322B010B500F021FB002801DA002010BD012038
S11322C010BDC046F0B54D4644465F465646F0B490
S11322D01D1C4B00141C0E035B0DCA0F87B0071C9A
S11322E0360B98469146002B1DD1321C024300D177
S11322F081E1002E00D104E2301C01F039FA2728D4
S113230000DDF8E12821031C083B0A1A391C9E4011
S1132310D1400E439F40C14B0021181A0022804631
S11323208A4600920FE0BE48834231D080214B039D
S11323301E43BC487A0FF600002100231643FF0019
S113234080448A460093291C201C251C4A000C0347
S1132350CB0F240B520D9B4625D1211C014300D1E8
S113236050E1002C00D1C2E1201C01F001FA272821
S113237000DDB6E1031C2822083B291C121A9C40EC
S1132380D1400C439D40A54B1A1A0020029019E03D
S1132390321C3A4300D029E108270223BA4600261A
S11323A000270093CFE79E48824200D113E18021A9
S11323B04B031C439B49680FE40000230443ED00D6
S11323C05218029348465B46434002985146019393
S11323D001430F2900D8DFE043469A1A0492A6422B
S11323E000D86EE171087B08F6073343FA07894683
S11323F098460292280E240204432D022704390C25
S1132400AB46250C00914846291CFFF76DFE009F42
S1132410061C4743291C4846FFF7AAFE4346080406
S11324201A0C1043874207D90019013E844203D88D
S1132430874201D9013E0019C11B8A46081C291C88
S1132440FFF752FE009B071C4343291C5046994644
S1132450FFF78EFE424610040B04010C0B43994512
S113246004D91B19013F9C4200D864E136043E4361
S11324705F464A46390C89469B1A59463204170C62
S11324800A0449467943120C03928C460399300C92
S11324907A4341434F4678438C44170C6744B9420E
S11324A002D9802149024018390C120440183F0413
S11324B0110C7F18834200D227E100D141E1029937
S11324C01B1ACF1BB942804141425A1A9046A2427C
S11324D000D15FE1101C291CFFF706FE009B02904F
S11324E04343291C40469A46FFF742FE380C090430
S11324F001438A450AD9029A0919013A02928C4287
S113250004D88A4502D9013A029209195346C81AD5
S1132510291C0590FFF7E8FD009A291C42438046D8
S113252005989246FFF724FE3F040D043A0C2A4313
S1132530924509D901214B4212199844944203D877
S1132540924501D998441219029D43462F041F4312
S11325505046111A3804030C4D465D430398AC46AB
S1132560039D3A0C584355434B465A43AC44030C21
S113257063449D4202D980256D0252191D0C00044A
S113258052191B04050C5B19914200D2E6E000D1FC
S11325903DE1012217435AE0890023488C466044F8
S11325A001688F46019B1E4A002600270020002157
S11325B0381C0F0D3C051D4D3443120525401543B1
S11325C06E00DB077108194307B03CBC904699467E
S11325D0A246AB46F0BD211C03202943029000D043
S11325E0F0E60223002400250293EBE60C200321ED
S11325F082460091A7E604270123BA460026002755
S11326000093A0E60121002400250291DAE60127C7
S11326100023074E7F42024AC8E7C0460DFCFFFF75
S1132620FF07000001FCFFFF20870000FFFF0F8071
S1132630FFFF0F002F1C5A46029D261C0192022DFB
S1132640B0D0032D00D101E1012D00D19CE0049B09
S113265082481A18002A00DC8CE00F243C40042C29
S113266005D03B1DBB42BF417D4276191F1CF101C1
S113267005D57B4A04998020C40016400A19794B79
S11326809A4200DD8EE77507FF08760251052F4355
S1132690360B4A0D019B89E700220026002785E7B7
S11326A0802001030E4216D00C4214D10C432603A1
S11326B0360B5B462F1C6C4A78E74C460194009D10
S11326C0BDE7A64243D00498B846013800270490D9
S11326D0B14602978EE60E4333031E0B624A4B4605
S11326E064E7041C283CA5402C1C00254BE601F0A3
S11326F03FF820303BE6061C283EB7403E1C00272E
S113270009E601F035F82030F9E5029A013E111C82
S113271059445945924152421219D3189C4204D249
S113272098426BD816D01B1ACBE6A342FBD18B453B
S1132730F6D9231AC5E6994500D897E6013F1B1937
S113274094E6029ABA42E0D302990023B9E6AF4272
S1132750B9D947E68F4251D80023B2E60919013F9F
S113276058468C4219D9914200D012E7984200D0C1
S11327700FE76CE73D4C049D631B382B1CDD019B6C
S113278000220026002711E7019B00222B4000268F
S113279000270BE701277F4259E78A4203D800D07C
S11327A0F7E69842E2D25D4668005845AD416D4275
S11327B02C19013F0919D6E71F2B34DC049C2C4A41
S11327C0381CA518311CAF40D840A9403C1C01431B
S11327D0671EBC410F1C2743DE400F233B40042BE4
S11327E005D03A1DBA42BF417D427619171C320208
S11327F011D5019B012200260027D7E659445945EB
S1132800924152421219D318013E1B1A59E6002B69
S1132810A4D10020AAE77007FF08710207430E0B3A
S1132820019B0022C2E61349049C301C0A1BD040C1
S1132830051C202B08D0104BE1188E4037437B1E1B
S11328409F412F430026C8E70026F7E780221003A4
S1132850064331030E0B019B034AA7E6FF03000066
S1132860FFFFFFFEFE070000FF07000002FCFFFF62
S11328701E040000E2FBFFFF3E040000F0B5944696
S113288047461A03061C580080B4170B420D19481A
S11328900D034C00DB0F2D0B640DC90F98468442C9
S11328A008D0144882420DD00120944212D004BCB6
S11328B09046F0BD2B1C33430120002BF7D10D486B
S11328C08242F1D163463B430120002BEFD101202A
S11328D09442ECD1BD42EAD16645E8D1414506D0E7
S11328E0002CE4D1281C3043451EA841DFE700201A
S11328F0DDE7C046FF070000F0B557464E464546A3
S1132900E0B4041C4E000803C90F8A46171C590082
S11329101A03050B700D160B4A0D3049DB0F9C464C
S1132920884232D02D498A4235D000280FD1291C43
S113293021434B424B419846002A0BD0002B1AD11D
S1132940E2452CD05546002D18D1012018E0002A6C
S1132950F6D19046311C39434B424B414146002944
S113296006D1002BECD056460120002E08D005E0FD
S11329700020002B04D16746002FE6D101235842E2
S11329801CBC90469946A246F0BD2B1C2343C9D0DB
S113299002214842F4E7331C3B43C6D0F8E7904297
S11329A005DC09DA5246002AE8D00120E8E754465B
S11329B0002CE3D10120E3E7B542C3D807D00020BF
S11329C0B542DDD250460028D8D00120D8E7BC4219
S11329D0B8D80020BC42F5D3D2E7C046FF070000B8
S11329E0F0B544465F4656464D46F0B49446061C40
S11329F01A035800170B420D2E480D034C00DB0F31
S1132A002D0B640DC90F9846844233D02948824265
S1132A1036D0002C19D0002A20D1934663463B437C
S1132A20584258415B468246002B1DD05146002037
S1132A30002904D14246002A14D1012460423CBC3E
S1132A4090469946A246AB46F0BD2B1C33435842F0
S1132A5043419B46002AE1D0002BEBD1414515D0E0
S1132A600029EAD10120EAE70028F7D00120002953
S1132A70E5D0E2E72B1C33430220002BDFD1C5E76E
S1132A8063463B430220002BD9D1C2E79442E7DCE2
S1132A9005DBBD42E4D806D00020BD42CFD20029D8
S1132AA0CBD00120CBE76645DAD800206645F6D3C3
S1132AB0C5E7C046FF070000F0B5564644465F46EA
S1132AC04D46F0B44F001D1C0B03141C1A0B7B0D58
S1132AD087B0061C92469846CF0F002B21D10243A3
S1132AE000D149E15346002B00D1E4E1504600F007
S1132AF03FFE031E272B00DDD8E1083B51469940D9
S1132B0028228846111A321CCA4041460A4392467A
S1132B109E40D84B0022181A00218046914603910A
S1132B2011E0D54883423ED0802153464A031A43DC
S1132B30D000710F0843D14A824600230020F600DA
S1132B40904499460390291C201C251C4A000C0320
S1132B50CB0F240B520D9B4631D1211C014300D1D4
S1132B6012E1002C00D19DE1201C00F001FE272879
S1132B7000DD91E1031C2822083B291C121A9C4009
S1132B80D1400C439D40BB4B59461A1A7940002052
S1132B904B46019103430F2B26D89900B84B8C4622
S1132BA0634419688F46111C314300D0DFE00826C6
S1132BB000200221B146824600260391C3E7AE48B5
S1132BC0824200D1C9E080214B031C43AB49680F0A
S1132BD0E4000443ED0052180020594679404B4666
S1132BE0019103430F2BD8D942443304290404929E
S1132BF01A0C0F0C101C7843360C331C80462D0C19
S1132C007B43301C6843111C69439C4643468346FE
S1132C10180C08186044844500D91FE1010C434690
S1132C20039119040B0C0004C0182104240C059012
S1132C30101C6243090C02924843321C66434A4307
S1132C40029BB146060C9046B4461A1C62444244A8
S1132C50904502D9802673029944160CB046C144AB
S1132C6000044B46060C1204029393195646320490
S1132C70100C021C6A439C46031C7B439146320C95
S1132C80574398461B0C9A46D144B94455434F4583
S1132C9002D980277E02AD194B461F0C4646ED191A
S1132CA01F0433041E0C031C4B4360435143544321
S1132CB01A0C8018B046401847449A46814202D9FB
S1132CC080214E02A419039B1A1C62445A44624593
S1132CD089414E425146B34603040E049C46029970
S1132CE0330C6344CE18B046C246DA44D219BA4211
S1132CF0BF4151467B426F18F9189946DA459B410A
S1132D005E42029BB3469845B64176425B461E43FB
S1132D10000C49459B41AF42AD4136186F425842C1
S1132D20384336180598341956020643CB0D64020D
S1132D30701E8641D20D164349021C430E43E00126
S1132D402FD50127049D374073083E1CE007013549
S1132D501E4304950643640823E0231C2B430320ED
S1132D60002B00D039E700240025022035E70C228F
S1132D70032391460393E6E6042600230120B1468B
S1132D809A4600260390DEE600240025012024E76D
S1132D9003985446022844D0032800D1EAE00128CD
S1132DA060D0049A37495018002800DC95E00F27BA
S1132DB03740042F05D0311DB142B6417542641924
S1132DC00E1CE10105D53048049A8023DF0004403D
S1132DD0D0192E49884224DC019B6507F608640259
S1132DE0420501272E43240B520D1F4000200021D1
S1132DF0090D0D052543264C12052C401443630090
S1132E00301C5E08FF07311C394307B03CBC9046B8
S1132E109946A246AB46F0BD5A462E1C01920228A2
S1132E20BAD1019E01273740134A00240026DDE76A
S1132E30544601970398ADE701260027154C7642C6
S1132E400D4AD3E72E1CA5E78022130351461942ED
S1132E5035D10B431D032C0B074AC7E780214B02D6
S1132E609B44DBE6019B00221840C7B200240026E5
S1132E70BCE7C0460DFCFFFFFF07000001FCFFFF9D
S1132E8060870000FF030000FFFFFFFEFE07000055
S1132E90FFFF0F80FFFF0F00041C283CA5402C1CE3
S1132EA0002570E600F064FC203060E6283B9E407C
S1132EB0B24600262DE600F05BFC203019E61C42E9
S1132EC006D11C432603340B5F462E1C2E4A8DE785
S1132ED00B431803040B2C4A88E72C4F049D7B1BDF
S1132EE0382B06DD019E01273740002200240026EE
S1132EF07CE71F2B21DC049A254F351CD119201C9B
S1132F008E40DD408840321C2843561EB241061CC8
S1132F101643DC400F233340042B05D0371DB74242
S1132F20B641714264183E1C250217D5019B012746
S1132F301F4001220024002658E71648049A211C49
S1132F40871AF9400D1C202B12D0134BD018844043
S1132F502643721E96412E430024DBE7019A65073F
S1132F60F6086002012717402E43040B00223DE7B8
S1132F700024EDE780210F033C430198240301273B
S1132F80240B0740004A31E7FF07000002FCFFFF63
S1132F901E040000E2FBFFFF3E040000F0B55746AC
S1132FA04E464546E0B4071C0D034E00680ACC0F9C
S1132FB0790F08438446111C18035A00FD00400A87
S1132FC0DF0F4B0F1843C74BC900760D520D8A46CD
S1132FD09A4200D1DEE001235F40B946BC4200D1F1
S1132FE0A6E0B71A002F00DC0BE1002A12D15246EA
S1132FF0024300D1D2E0013F002F00D05BE15146F3
S11330006F1ABD42AD4162466B42101A3D1CC31A91
S1133010371C24E0B34A964200D1DEE080210B0441
S11330201843382F00DD1EE11F2F00DD60E1202151
S1133030C91B021C53468A40FB401A4353468B402B
S1133040191C4B1E9941031C0A43FB40AA1A6746EC
S11330509542AD41F81A6B42C31A151C371C1A026B
S113306000D4C2E05E02710A88464246002A00D1BA
S1133070EBE0404600F07CFB021C083A1F2A00DD0E
S1133080ECE02823181A2E1C4146C6409140331CFC
S11330900B439540974200DDA4E0D01B411C1F293F
S11330A000DD0DE11F273A1A2E1C181CCE4090405B
S11330B0954030436A1E9541CB40054301210027CA
S11330C00F262E40042E00D170E02E1DAE42AD41DD
S11330D0684201221B181440180207D5814FB942D7
S11330E000D1AEE0804D0F1C2B400131F2084905A0
S11330F05E073243DB08480D012800DC77E01B0340
S11331007F051B0B7E0D002000210D0D101C2905D1
S1133110764A0B4377057E081A40324353005D0814
S1133120291CE40721431CBC90469946A246F0BDE5
S1133130B31A002B00DCA3E0002A3BD0694A964274
S11331404BD080210F043843382B00DC14E1534664
S1133150184300270022002800D001225219AA4255
S1133160AD4167446B42FB18151C371C1E023CD54D
S11331705C487E1C864200D177E15B4901222A40EB
S11331800B406808151CD90705430D435B08B91C9F
S1133190371C95E7014300D11DE71EE7711C371C5E
S11331A00F2663462E40042E00D08EE701221440E1
S11331B02E1C91E752460243F0D0013B002B09D16B
S11331C057467919A9429241554260444319371C24
S11331D00D1CCBE743498E42B6D1802063460101E2
S11331E0371C6DE7BF1A404A1340791C68E7151C69
S11331F01D4300D120E2002F3ED0802631030B4333
S11332007DE7002F00D085E0721C51054B0D012B8A
S113321000DCEFE05746EA1B95429B416746391AAA
S11332205B42C91A88460B0200D49CE05446651BD5
S1133230AA459241C01B5742C31B9846371C4C46B3
S113324013E70E1C002300225DE7281C00F090FA0F
S11332502030021C083A1F2A00DC12E72838854077
S11332602B1C002516E7574638430023002200286C
S113327000D1EBE60122E9E61803030B002642E73E
S1133280002B00D0D8E0771C79054A0D012A00DC18
S113329094E0144B9F4200D1FDE051464919A942E4
S11332A0AD4162466B428018C2184908D5070D43E8
S11332B05308B11C04E70B498E4200D0B1E68CE7F9
S11332C0061C1F3E1F1CF7403E1C202972D03F22C3
S11332D0101A83401D436B1E9D4135430121002379
S11332E00027EDE6FF070000FFFF7FFFFFFF0F80D1
S11332F03B1C203B011CD9400B1C202F5CD04022DE
S1133300D71BB840021C50460243511E8A411A433F
S113331000239BE67F42002E40D0CA4CA24200D13B
S11333201FE1802166460B041E43B446382F00DD9E
S1133330A9E01F2F00DD3DE12023DE1B291C64468C
S1133340B440F940B5406B1E9D41214363460D4393
S1133350FB4057467D1BC01AAA459B415F42C31BD5
S11333604C46171C7BE60D1C154320D1002401217B
S1133370002304260027AFE61F2B4ADC2021C91AAC
S1133380071C52468F40DA403A4357468F40391C57
S11333904F1EB941D8400A43071CDFE664462C435C
S11333A069D1511C031C5546171C4C4688E6151C54
S11333B0371C5AE600238DE70022A4E767462F4313
S11333C0002E00D0D4E0002F00D126E15346034361
S11333D000D1E4E051464F19AF42AD4160446E4222
S11333E083191E0200D44EE197483D1C034002217C
S11333F0012765E661462943002E29D1002976D1AB
S113340051460143B2D0031C55464C4601210027C6
S113341056E61F1C203F011CF9400F1C202B00D135
S1133420C6E04022D31A9840021C50460243531E61
S11334309A413A43002791E65B42002E30D1674619
S11334402F4300D0C8E0511C031C5546171C37E617
S1133450002965D15746074300D1C8E0031C8020EA
S113346055464C460101774F2AE68023371C190143
S11334700426002330E6013F002F6ED154466146F6
S1133480651B401A68E767463D430023002D00D1C1
S11334905FE701255DE780263101002304261BE652
S11334A068498A4200D1C1E08027664639040E4348
S11334B0B446382B00DDA2E01F2B00DDD0E0202134
S11334C0C91A2E1C67468F408D40DE403E43291C9E
S11334D067464D1EA941DF40351C0D433E1C554433
S11334E055459B4130185E428319171C3EE65646EB
S11334F0064354D05746EA1B63469542B641191A0F
S11335007342CB1A1E0200D4A2E07D1B6446AA4576
S1133510BF41001B7A42831A4C4601210027CFE5A4
S1133520564606433FD0624680215707ED08D3082C
S11335300A033D43134208D0C608164205D1554636
S1133540EC0845072543331C4C46680FDB008026F6
S11335500343ED0031013B4FB2E53A498A4200D0C2
S1133560E4E68026031C55464C463101171CA7E5AA
S1133570002F4CD05346034315D062468026ED08F5
S11335805107D30837030D433B42DED0C2083A4209
S1133590DBD15546E9084507131C0D43D5E76346BF
S11335A0012100278CE5802739016346254F87E5F3
S11335B000223AE73C1C203C6646E640331C202FA0
S11335C05FD04024E71B6646BE40311C0D43691E94
S11335D08D411D430023BCE6013B002B22D1554401
S11335E05545BF417B426044C318171CBEE580218A
S11335F0042200240901154B5642124F6CE5634620
S11336001D430026002D00D169E7012567E78022CC
S1133610031C554611010B4F52E5031C554601216D
S113362000274DE507498A4200D042E78021031C68
S113363055460901171C43E57A05560D002300225F
S113364061E5C046FF070000FFFF7FFFFFFF7F002B
S11336501D1C154300D189E6151C012100272FE507
S11336601F1C203F6146F940202B10D04026F31A3E
S113367067469F403B1C1D436B1E9D410D43002626
S11336802DE70021A2E73D1C0121002718E50023B6
S1133690F1E7C046134A0B0330B5051C48001C0B68
S11336A0C90F430D0020934211DD0F4883420FDC04
S11336B0802250030D4A0443D01A1F280BDD0C4D01
S11336C0EB1ADC40221C5042002900D1101C30BDF2
S11336D0084C0819FBE7C54007482A1C1D18AC40D4
S11336E02243F0E7FE0300001D0400003304000041
S11336F013040000FFFFFF7FEDFBFFFFF8B5041E7E
S11337002DD0C50F00D04442201C00F031F81649DA
S11337100A1A0A2816DD0B388440570526037A0D49
S1133720360B002700200021381C0F0D3B050F4CE1
S113373033431C401605344361004A08ED07111C4D
S11337402943F8BD0B26011C301A1531231CC44033
S11337508B40520521031F1C0E0B520DE2E700257E
S1133760002200260027DDE71E040000FFFF0F8073
S11337701C2101231B04984201D3000C10391B0A9D
S1133780984201D3000A08391B09984201D3000961
S1133790043902A2105C40187047C04604030202B8
S11337A001010101000000000000000080B584B0A8
S11337B000AF78600C4BFB60FB687A681A600B4AB8
S11337C00A4988235B01CB58FF218B430C21194301
S11337D088235B01D150064BFA681A60FB68181CF9
S11337E0BD4604B080BDC046000000200070044007
S11337F02400002080B584B000AF78601D4A88237F
S11338005B01D358DBB21A1C0C2313402BD03B1C96
S11338100F33EFF3108072B61870174B1B78DBB2BE
S11338200133DBB2144A191C1170012B04D13B1C67
S11338300F331A78114B1A700E4A114B5521D1507F
S11338400C4A0F4BAA21D1500B4B1B78DBB2013B26
S1133850DBB2094A191C1170002B06D1074B1878EA
S113386080F3108801E0072300E00023181CBD4604
S113387004B080BD00700440B4000020D80A0020C9
S11338800411000080B582B000AF786002F0AAFA9B
S1133890BD4602B080BDC04680B584B000AF78603C
S11338A00F4BFB60FB687A689A60FB6801221A710F
S11338B00C4BFA689A62002000F028F8021CFB689E
S11338C01A60FB681B68002B04D1064B00229A6225
S11338D0002300E0FB68181CBD4604B080BDC04650
S11338E0040000202400002080B584B000AF78607C
S11338F0054B9B6AFB60FB689B68181C00F0A6F8EC
S1133900BD4604B080BDC0462400002080B584B00C
S113391000AF78602D4B5B6A002B45D12C4BFB60CC
S1133920FB687A68DA60FB6801221A72294BFA682C
S11339301A60294A2849294BCB5880218904194304
S1133940264BD150264B00221A60254B00225A6088
S1133950234B0022DA60224B00225A61204B214A79
S11339609A60FB68802252001A60FB6808225A6041
S11339701D4A1D49C4239B00C9581C4B0B40802180
S113398009041943C4239B00D150174B164A1268EB
S11339908021C9020A431A60114B48221A600B4B5A
S11339A0FA685A62FB680CE0084B5B6AFB60FB68D0
S11339B07A68DA60FB681B7A0133DAB2FB681A7240
S11339C0FB68181CBD4604B080BDC046240000201E
S11339D01000002020000020007004403C10000073
S11339E000900340EB51000000E100E0FFFF00FF06
S11339F080B582B000AF134B1B683B6000237B6033
S1133A00114B1A688023134004D07B688022520033
S1133A1013437B603B681A687B6813407B607A6859
S1133A2080235B0013400AD0074B074A12688021A9
S1133A300A431A603B68DB68181CFFF755FFBD4654
S1133A4002B080BD200000200090034080B582B009
S1133A5000AF786002F09CF9BD4602B080BDC0465C
S1133A6080B500AF114A1149114BCB58202119439D
S1133A700F4BD1500F4B0F4A11680F4A0A400F49A0
S1133A800A431A600B4B00229A600A4B094A516898
S1133A900B4A0A405A60074B064A1168094A0A4011
S1133AA080210A431A60BD4680BDC04600700440B0
S1133AB03810000000500440890000602400608C2D
S1133AC0FFFF7F0F7BFFFF7F80B584B000AF78607E
S1133AD01A4BFB60FB687A681A60194BFA681A6023
S1133AE0184B184A9168184A0A40802149000A4331
S1133AF09A60144B134A9168144A0A408521490478
S1133B000A439A60124A1249C7239B00CB581B02EE
S1133B101B0A802109061943C7239B00D1500C4B73
S1133B200B4A1268802109060A431A60094BFA6895
S1133B30DA63FB68181CBD4604B080BD7800002021
S1133B407C00002000B00440FFF8FFFEFFFFF0FE01
S1133B5000E100E02400002080B582B000AF0C4BEF
S1133B601B687B600B4B9A6880235B0413400BD06B
S1133B70084B084A9268802149040A439A607B688A
S1133B801B68181C02F022F9BD4602B080BDC04675
S1133B907C00002000B0044080B500AF0F4A0F49FC
S1133BA00F4BCB58012119430D4BD1500D4B002223
S1133BB01A600C4BFA2292009A600A4BC0221A60D7
S1133BC0084B05225A60074B064A126881218A4332
S1133BD001210A431A60BD4680BDC04600700440FE
S1133BE0381000000000044080B584B000AF786055
S1133BF0104BFB60FB6802225A70FB6800221A70AB
S1133C00FB680022DA70FB680022DA60FB687A68DD
S1133C105A61094A0849094BCB5801211943074BFA
S1133C20D150074BFA689A60FB68181CBD4604B073
S1133C3080BDC04680000020007004403C1000009D
S1133C402400002080B584B000AF7860204BFB6076
S1133C50FB6800225A60FB687A689A601D4A1D4915
S1133C601D4BCB588021090619431B4BD1501B4ACD
S1133C701A492123CB5CD9B27F230B40D9B221232B
S1133C80D154174B164A916F164A0A409A67134B40
S1133C9000225A70114B00221A70104A23230F215C
S1133CA0D1540E4A22230021D1540C4A202300214E
S1133CB0D1540A4A21238021D154FB6801221A706D
S1133CC0094BFA681A61FB68181CBD4604B080BD34
S1133CD098000020007004403C10000000F00340F5
S1133CE000D00440FFF8FFFE2400002080B500AFA0
S1133CF00020FFF779FF021C044B1A60044B0022DA
S1133D001A70044B01221A70BD4680BDA800002021
S1133D10A4000020A500002080B584B000AF786026
S1133D201A4BFB60FB687A681A60194BFA681A60D0
S1133D30184B184A9169184A0A40802149000A43DD
S1133D409A61144B134A9169144A0A408521490423
S1133D500A439A61124A1249C7239B00CB581B029B
S1133D601B0A802109061943C7239B00D1500C4B21
S1133D700B4A1268802109060A431A60094BFA6843
S1133D80DA64FB68181CBD4604B080BDAC0000209A
S1133D90B000002000B00440FFF8FFFEFFFFF0FE7B
S1133DA000E100E02400002080B582B000AF0C4B9D
S1133DB01B687B600B4B9A6980235B0413400BD018
S1133DC0084B084A9269802149040A439A617B6836
S1133DD01B68181CFFF756FDBD4602B080BDC046E7
S1133DE0B000002000B0044080B582B000AF174B93
S1133DF05B79DBB27B60154B9B79DBB21B027A6883
S1133E0013437B60114BDB79DBB21B047A681343E9
S1133E107B600E4B1B7ADBB2DBB25BB2002B04DAA5
S1133E207B688022520413437B60084B5B7ADBB2CD
S1133E30DBB25BB2002B04DA7B688022920413436A
S1133E407B607B68181CBD4602B080BD00C0074083
S1133E5080B500AFFFF780FEFFF7A6FFBD4680BD2B
S1133E6080B500AF01F054FF0E4BFF225A710D4B89
S1133E70FF229A710B4BFF22DA710A4B094A127A1C
S1133E80D2B2802149420A43D2B21A72054B054A82
S1133E90527AD2B2802149420A43D2B25A72BD4602
S1133EA080BDC04600C0074080B500AF01F068FF88
S1133EB0BD4680BD80B500AF414A4249424BD15016
S1133EC0424A434BC0218902D150404A3F49414BA9
S1133ED0CB58F821890119433E4BD1503B4A3B4909
S1133EE03C4BCB58012119433A4BD1503A4B9B7868
S1133EF0DBB21A1C0823134007D0374B364A92789A
S1133F00D2B208210A43D2B29A70304A304B00210F
S1133F10D1502E4A2D49314BC958314B19402F4BA2
S1133F20D1502A4B294A1268C02109030A431A6056
S1133F30264A2649294BC9582A4B0B40802149045B
S1133F401943264BD150284B274A127AD2B20E215C
S1133F508A43D2B21A72244B07221A70224B224A85
S1133F605278D2B2D2B2111C40220A40D2B20121FC
S1133F700A43D2B2D2B25A701B4B1B4AD278D1B286
S1133F801F220A40D2B2DA70184B00221A70164B64
S1133F9000221A71144B00225A71C046124B9B79AD
S1133FA0DBB21A1C10231340F8D0C0460E4B9B7989
S1133FB0DBB21A1C0C231340F8D1BD4680BDC046A9
S1133FC000E000E000200000080D00000070044044
S1133FD0441000003810000000D007400410000016
S1133FE0FFFFFEFFFFFFFFFC0040064000500640BD
S1133FF080B582B000AF934A924982235B01C958CD
S1134000914B194082235B01D1508E4A8D498F4BCD
S1134010C9588F4B0B408021C90019438B4BD15099
S1134020884A88498B4BC9588B4B0B408B491943A1
S1134030884BD150834A8349894BC958894B0B40DB
S113404001211943864BD150874B874A5279D2B20A
S11340501F218A43D2B25A71834B834A1279D2B256
S113406007218A43D2B21A71804B804A1278D2B2A5
S1134070D2B273218A43D2B251210A43D2B2D2B20C
S11340801A707A4B794A5278D2B2D2B263218A43F7
S1134090D2B243210A43D2B2D2B25A70734B734A9A
S11340A09278D2B219218A43D2B29A70704B704A74
S11340B05278D1B203220A40D2B25A706C4B6C4A85
S11340C09278D2B2D2B23F218A43D2B220210A439B
S11340D0D2B2D2B29A70664B654AD278D1B20F226C
S11340E00A40D2B2DA70624B614A1279D2B2D2B2C9
S11340F0111C4C220A40D2B201210A43D2B2D2B2DC
S11341001A715B4B80221A72594B80225A72594B96
S113411008221A70584B584A126858490A431A60C0
S1134120554A5549C7239B00CB58FF21181C884387
S1134130011CC7239B00D150514B514A1168514A6D
S11341400A401A60504B504A51684E4A0A405A601D
S1134150494A4949C6239B00C9584C4B1940C623B8
S11341609B00D1504A4B4A4A526944218A435A61BE
S1134170484B484A116D434A0A40E021C9000A43AA
S11341801A653D4A3C49C1239B00CB581B04190CBA
S1134190C1239B00D150344B5B78DBB21A1CBB1D8E
S11341A012021A80304B1B78DBB2191CBB1DBA1DDE
S11341B012880A431A80BB1D1B88181C01F098FD45
S11341C00020FFF7F3FAFFF7E7FC002000F06CFA99
S11341D0FFF78CFD002000F0B1F90020FFF732FD5D
S11341E000F0BEFF002000F077F9002000F014F981
S11341F0002000F0DFF80020FFF74EFB01F0E4F8A8
S1134200002000F0ADF8FFF72BFC002000F034F99B
S1134210002000F071F80020FFF756FC002000F0A9
S11342203BF8002000F0DEF9002000F0B7F9002090
S1134230FFF772FD002000F007FA62B6BD4602B037
S113424080BDC04600700440FFFEFFFF3410000034
S11342503FE337FF38100000DEC1FFFF013E0000DE
S11342603C100000FC7F7F5000F0074000D0074066
S113427000C0074000E0074000E100E080000010BB
S113428000A00440FFF8FFFE00B00440FFFF00FF61
S113429080F00F400090044080B584B000AF786097
S11342A0104BFB60FB687A681A600F4B0E4A526928
S11342B020210A435A610C4B0B4A126820218A437D
S11342C01A600A4B094A5169094A0A408021490087
S11342D00A435A61074BFA681A64FB68181CBD4606
S11342E004B080BDB800002080F00F4000B004404E
S11342F0FFF8FFFE2400002080B584B000AF786092
S1134300114BFB60FB687A681A60104B0F4A5269C4
S11343108021C9020A435A610C4B0C4A11680C4AA9
S11343200A401A600B4B0B4A916C0B4A0A408021DD
S113433049000A439A64094BFA689A63FB68181C9B
S1134340BD4604B080BDC046BC00002000F00F4054
S1134350FFFFFBFF00900440FFF8FFFE2400002055
S113436080B584B000AF78600D4BFB60FB687A6861
S11343701A600C4B0B4A526980218A435A610A4BDA
S1134380094AD169094A0A40802149000A43DA618D
S1134390074BFA681A63FB68181CBD4604B080BD5D
S11343A0C000002080F00F4000B00440FFF8FFFE82
S11343B02400002080B584B000AF7860114BFB600E
S11343C0FB687A681A60104B0F4A5269802109030E
S11343D00A435A610C4B0C4A1268802109030A43B0
S11343E01A600A4B094AD16C094A0A4080214900E3
S11343F00A43DA64074BFA681A62FB68181CBD4664
S113440004B080BDC400002000F10F4000D004407F
S1134410FFF8FFFE2400002080B584B000AF786070
S1134420104BFB60FB687A681A600F4B0E4A5269A6
S113443008210A435A610C4B0B4A126808218A432B
S11344401A600A4B094AD168094A0A408021490086
S11344500A43DA60074BFA68DA61FB68181CBD4648
S113446004B080BDC800002080F00F4000B00440BC
S1134470FFF8FFFE2400002080B584B000AF786010
S1134480104BFB60FB687A681A600F4B0E4A526946
S113449002210A435A610C4B0B4A126802218A43D7
S11344A01A600A4B094A5168094A0A4080214900A6
S11344B00A435A60074BFA685A63FB68181CBD46E6
S11344C004B080BDCC00002000F10F4000D00440B7
S11344D0FFF8FFFE2400002080B584B000AF7860B0
S11344E0114BFB60FB687A681A60104B0F4A5269E3
S11344F0802189020A435A610C4B0C4A12688021BC
S113450089020A431A600A4B094A516C094A0A4053
S1134510802149000A435A64074BFA689A61FB6890
S1134520181CBD4604B080BDD000002000F10F402F
S113453000D00440FFF8FFFE2400002080B584B0C2
S113454000AF7860104BFB60FB687A681A600F4B11
S11345500E4A526901210A435A610C4B0B4A1268F4
S113456001218A431A600A4B094A1168094A0A4020
S1134570802149000A431A60074BFA68DA60FB6835
S1134580181CBD4604B080BDD400002000F10F40CB
S113459000D00440FFF8FFFE2400002080B584B062
S11345A000AF78600C4BFB60FB687A681A600B4BB9
S11345B00A4A526940218A435A61084B074A1268E1
S11345C040210A431A60064BFA689A64FB68181C77
S11345D0BD4604B080BDC046D800002080F00F4026
S11345E02400002080B584B000AF7860114BFB60DC
S11345F0FB687A681A60104B0F4A526980210903DC
S11346000A435A610C4B0C4A1268802109030A437D
S11346101A600A4B094AD16C094A0A4080214900B0
S11346200A43DA64074BFA685A64FB68181CBD46EF
S113463004B080BDDC00002000F00F400090044076
S1134640FFF8FFFE2400002080B584B000AF78603E
S1134650104BFB60FB687A681A600F4B0E4A526974
S113466080210A435A610C4B0B4A126880218A4309
S11346701A600A4B094AD169094A0A408021490053
S11346800A43DA61074BFA681A65FB68181CBD46D1
S113469004B080BDE0000020C0F00F4000C0044022
S11346A0FFF8FFFE2400002080B584B000AF7860DE
S11346B0104BFB60FB687A681A600F4B0E4A526914
S11346C010210A435A610C4B0B4A126810218A4389
S11346D01A600A4B094A1169094A0A4080214900B3
S11346E00A431A61074BFA685A60FB68181CBD46F6
S11346F004B080BDE4000020C0F00F4000C00440BE
S1134700FFF8FFFE2400002080B584B000AF78607D
S11347102B4BFB60FB687A685A60FB6800221A70B6
S1134720FB6800225A70274A2649274BCB58802120
S113473009051943244BD150244B244A9169244A36
S11347400A409A61234B234AD26810210A43DA6053
S11347501E4B1E4A51691E4A0A405A611D4B1D4A8E
S1134760D26810210A43DA601B4B1B4A916C184A29
S11347700A409A64194B194A5168154A0A405A600A
S1134780154B154A116C124A0A401A64114B5422F3
S11347909A60104B0F4AD2680F218A4302210A43C0
S11347A0DA600C4B01221A620A4B40225A620C4B0B
S11347B0FA68DA62FB68181CBD4604B080BDC046C6
S11347C0E8000020007004403C10000000C00440D9
S11347D0FFF8FFFE00B0034000D0044000A00440F6
S11347E02400002080B584B000AF7860614BFB608A
S11347F0FB6800221A81FB6800221A82FB680022EF
S1134800DA60FB6800225A82FB6800221A83FB6884
S113481000225A61FB687A68DA61574BFA681A60B9
S1134820564A5649564BCB588021C9001943544B1C
S1134830D150544B534A5168534A0A40802189004D
S11348400A435A604F4B4F4A91684F4A0A408021AD
S113485089000A439A604D4A4C49C3239B00CB58B4
S1134860FF218B4380211943C3239B00D150474B25
S1134870464A1268802149010A431A60444B444A5B
S1134880D278D2B208218A43D2B2DA70404B404A7D
S1134890D278D2B204218A43D2B2DA70FB68002201
S11348A01A80FB6800225A60FB6801229A70384B18
S11348B004229A70364B00229A71354B00229A7268
S11348C0334B00225A712D4A2C49324BCB58C0210C
S11348D0090519432F4BD1502D4B2D4A1278D2B2D2
S11348E01F218A43D2B21A70294B1A225A70284BBC
S11348F0274A927AD2B2D2B21F218A43D2B203217A
S11349000A43D2B2D2B29A72214B214AD27AD2B29B
S1134910D2B202210A43D2B2D2B2DA721C4B1C4A7E
S1134920D278D2B2D2B208210A43D2B2D2B2DA7069
S1134930174B174AD278D2B2D2B204210A43D2B268
S1134940D2B2DA70124B124AD278D2B220210A4380
S1134950D2B2DA700E4B0E4A9279D2B20F210A43C8
S1134960D2B29A710C4BFA685A61FB68181CBD46A6
S113497004B080BDF000002010010020007004404D
S11349803410000000900440FFF8FFFE00E100E056
S113499000A00640041000002400002080B584B06C
S11349A000AF78607B68FB60FB689B78002B26D1A6
S11349B0FB6801229A70144B134AD278D2B2D2B255
S11349C008210A43D2B2D2B2DA700F4B0E4AD2781F
S11349D0D2B2D2B204210A43D2B2D2B2DA700A4BB2
S11349E0094AD278D2B220210A43D2B2DA70064BF5
S11349F0054A9279D2B20F210A43D2B29A710023A6
S1134A00181CBD4604B080BD00A0064080B584B02B
S1134A1000AF78607B68FB60FB689B78002B22D03A
S1134A20FB6800229A70124B114AD278D1B21F222D
S1134A300A40D2B2DA700E4B0D4A9279D2B20F21EB
S1134A408A43D2B29A710A4B094AD278D2B2082167
S1134A508A43D2B2DA70064B054AD278D2B2042124
S1134A608A43D2B2DA700023181CBD4604B080BD5C
S1134A7000A0064080B586B000AFF860B960BB1DE9
S1134A801A80FB687B617B699B78002B01D107232B
S1134A9039E0BB1D1B88002B01D1842333E07B69E3
S1134AA01B8A002B01D008232DE03B1C1333EFF3AA
S1134AB0108072B61870164B1B78DBB20133DBB270
S1134AC0134A191C1170012B04D13B1C13331A789F
S1134AD0104B1A707B69BA68DA607B69BA1D128858
S1134AE01A827B6900221A81094B1B78DBB2013BD5
S1134AF0DBB2074A191C1170002B03D1054B18783F
S1134B0080F310880023181CBD4606B080BDC04643
S1134B10B4000020D80A002080B586B000AFF86049
S1134B20B960BB1D1A80FB687B617B699B78002B95
S1134B3001D107234EE0BB1D1B88002B01D1842328
S1134B4048E07B691B8B002B01D0082342E03B1C0F
S1134B501333EFF3108072B61870204B1B78DBB25E
S1134B600133DBB21D4A191C1170012B04D13B1C0B
S1134B7013331A781A4B1A707B69BA685A617B69C5
S1134B80BA1D12881A837B6900225A827B691B88AA
S1134B90012213439AB27B691A80124B114AD278CC
S1134BA0D2B2802149420A43D2B2DA700D4B0D4A87
S1134BB09279D2B29A71094B1B78DBB2013BDBB21A
S1134BC0064A191C1170002B03D1054B187880F389
S1134BD010880023181CBD4606B080BDB400002018
S1134BE0D80A002000A0064080B582B000AF7860EB
S1134BF0064B064AD278D2B2D2B208210A43D2B2C4
S1134C00D2B2DA70BD4602B080BDC04600A00640F4
S1134C1080B582B000AF7860064B064AD278D2B233
S1134C20D2B204210A43D2B2D2B2DA70BD4602B083
S1134C3080BDC04600A0064090B583B000AF786048
S1134C40124BDB79DBB21C1C7B681B8A002B1AD04D
S1134C507B68DB68E2B21A705A1C7B68DA607B6896
S1134C601B8901339AB27B681A817B681A897B6835
S1134C701B8A9A4207D17B6800221A827B68DB690F
S1134C80181C00F0BBFABD4603B090BD00A006405E
S1134C9080B582B000AF78607B685A8A7B681B8BD2
S1134CA09A421CD2204A7B685B691978D1715A1CDC
S1134CB07B685A617B685B8A01339AB27B685A824B
S1134CC07B685A8A7B681B8B9A4229D17B680022B5
S1134CD01A837B68DB69181C00F0D0FA20E0124BC1
S1134CE0114AD278D1B27F220A40D2B2DA700E4B86
S1134CF00D4A9279D2B29A710B4B0B4AD278D2B246
S1134D0040210A43D2B2DA70074B074A9279D2B2F1
S1134D109A717B681B88012293439AB27B681A803C
S1134D20BD4602B080BDC04600A00640F0B547466F
S1134D3080B482B000AF424B1B687B60414B1B794F
S1134D40DBB21C1C002500260F23234043D03D4B1F
S1134D500F221A713B4BDB79DBB2984602232340C6
S1134D6012D0202323400CD04346002B09D1731CBE
S1134D70DEB27B681B88022213439AB27B681A80D6
S1134D8002E004232B439DB20823234002D00123D5
S1134D902B439DB20123234002D002232B439DB217
S1134DA00423234002D008232B439DB27B685A6816
S1134DB02B1C1A437B685A6020239C43002E05D089
S1134DC07B68DB69181C00F0EFFA04E07B68DB69A0
S1134DD0181C00F097FA2023234003D07B68181C8A
S1134DE0FFF72AFF7B681B881A1C0123134006D097
S1134DF08023234003D07B68181CFFF749FF114B25
S1134E00DB78DBB21A1C4023134014D04023234028
S1134E1011D00C4B0B4AD278D2B240218A43D2B281
S1134E20DA70084B074A9279D2B29A717B68DB69CF
S1134E30181C00F0AFFABD4602B004BC9046F0BDA9
S1134E401001002000A0064080B584B000AF786057
S1134E5039607B68FB60FB689B78002B01D10723DA
S1134E602AE03B1C0B33EFF3108072B61870144B1E
S1134E701B78DBB20133DBB2114A191C1170012B10
S1134E8004D13B1C0B331A780E4B1A70FB685A681A
S1134E903B681A60FB6800225A60094B1B78DBB23E
S1134EA0013BDBB2064A191C1170002B03D1054BE0
S1134EB0187880F310880023181CBD4604B080BD08
S1134EC0B4000020D80A002080B500AF174B1B782F
S1134ED0002B24D0164B1B68181CFFF75FFD144BE6
S1134EE01A68144B101C191C0122FFF7C3FD124B46
S1134EF01B88002B18D0114B1B88202213439AB215
S1134F000E4B1A800A4B1A680D4B1B88191C0D4B4B
S1134F10CB18101C191C0122FFF7FEFD04E0044B02
S1134F201B68181CFFF772FDBD4680BD14010020EC
S1134F30DC0A0020B8010020BA010020160100207C
S1134F40BC010020C001002080B500AF064B1B78D7
S1134F50002B04D1044B01221A70FFF7B5FF002384
S1134F60181CBD4680BDC0461401002080B584B025
S1134F7000AF78603B1C0F3300221A702D4B1B8846
S1134F80002B4ED03B1C0E33EFF3108072B618701A
S1134F90294B1B78DBB20133DBB2274A191C117091
S1134FA0012B04D13B1C0E331A78244B1A70214B6D
S1134FB01B88013B9AB21F4B1A80214B1B881A1C79
S1134FC02049895C7A68117001339AB21C4B1A80AB
S1134FD01B4B1B88952B02D9194B00221A801A4BA4
S1134FE01B881A1C194B134001D0192300E000231D
S1134FF03A1C0F321370144B1A88154B13409AB293
S1135000114B1A800C4B1B78DBB2013BDBB20A4A12
S1135010191C1170002B06D1084B187880F31088E6
S113502001E00A2302E03B1C0F331B78181CBD4629
S113503004B080BD18010020B4000020D80A00206C
S11350401A01002020010020160100204108000060
S1135050B6F7FFFF80B584B000AF021CFB1D1A70C9
S1135060314B1B88962B01D10B2358E03B1C0F338B
S1135070EFF3108072B618702C4B1B78DBB201333F
S1135080DBB22A4A191C1170012B04D13B1C0F33CB
S11350901A78274B1A70244B1B8801339AB2224B7F
S11350A01A80244B1B881A1C2349F81D0078885445
S11350B001339AB21F4B1A801E4B1B88952B02D9C1
S11350C01C4B00221A801D4B1B78002B18D01C4B44
S11350D01B881A1C2023134012D1194B1B88202231
S11350E013439AB2164B1A80164B1A68164B1B8838
S11350F0191C114BCB18101C191C0122FFF70CFDB5
S11351000A4B1B78DBB2013BDBB2084A191C117055
S1135110002B03D1064B187880F310880023181C49
S1135120BD4604B080BDC046BA010020B4000020D2
S1135130D80A0020BE010020C00100201401002074
S113514016010020DC0A0020BC01002080B500AF5D
S1135150024B1B88181CBD4680BDC04618010020A8
S113516080B500AF104B00221A80104B01221A7038
S11351700F4B00221A800F4B00221A800E4B002284
S11351801A800E4B00221A800D4B00221A800D4B00
S113519000221A800020FFF725FB021C0A4B1A602C
S11351A0FFF792FEBD4680BD1601002014010020C9
S11351B0180100201A0100201C010020BA0100205F
S11351C0BC010020BE010020DC0A002080B500AF35
S11351D0034B1B68181CFFF71BFDBD4680BDC04672
S11351E0DC0A002080B500AF034B1B68181CFFF7D6
S11351F0FBFCBD4680BDC046DC0A002080B582B001
S113520000AF7860174B1B88952B18D8154B1B885B
S113521001339AB2134B1A80134B1B881A1C13497F
S113522008781349885401339AB20F4B1A800E4BF5
S11352301B88952B0AD90C4B00221A8006E00D4BD3
S11352401B88402213439AB20A4B1A800A4B1A68ED
S1135250064B101C191C0122FFF70CFCBD4602B0C2
S113526080BDC046180100201C010020B8010020A8
S11352702001002016010020DC0A002080B582B045
S113528000AF78601A4B1B8801339AB2184B1A800E
S1135290174B1B88952B02D9154B00221A80154BEE
S11352A01B88013B9AB2134B1A80124B1B88002BAC
S11352B013D0114B1B88202213439AB20E4B1A8031
S11352C00E4B1A680A4B1B88191C0D4BCB18101C6B
S11352D0191C0122FFF720FC06E0074B1A88DF2384
S11352E013409AB2044B1A80BD4602B080BDC0463A
S11352F0BC010020BA01002016010020DC0A0020B5
S1135300C001002080B584B000AF78601F4B1A68DC
S11353103B1C0C33101C191CFFF796FDFB68002B7B
S113532031D0FA680223134001D0042300E00023A3
S1135330174A128813439AB2154B1A80FA68082345
S1135340134001D0802300E00023114A1288134344
S11353509AB20F4B1A80FB689AB2012313409AB297
S11353600B4B1B8813439AB2094B1A80FA68042327
S1135370134001D0022300E00023054A128813439E
S11353809AB2034B1A80BD4604B080BDDC0A0020EB
S11353901601002080B582B000AF786000F0E6FC12
S11353A0BD4602B080BDC04680B582B000AF786013
S11353B0044B1B88022213439AB2024B1A80BD4647
S11353C002B080BD1601002080B500AF094B002259
S11353D01A70094B00221A70084B00221A70084BED
S11353E000221A700020FFF78FF9021C054B1A6087
S11353F0BD4680BD580200205B02002059020020F7
S11354005A020020EC0A002080B500AF054A064B82
S1135410D31A054A101C00211A1C01F0C9FDBD460F
S113542080BDC046B40B00200000002003F0C4F887
S1135430FEF740FDFFF7E8FF03F0F2F803F070F821
S113544003F0C8F8044B0020191C00F00DF8031CED
S1135450181C01F09BFCC0465C02002080B582B0A1
S113546000AF7860FEE7C04680B500AFFEF7C0FD30
S1135470FFF76AFDFFF7AAFEFFF7B4FE00F0A4FBF6
S1135480044B1B68181CFEF7B5F901F017FA00F07D
S1135490C9FBF5E72400002080B500AF00BEBD467F
S11354A080BDC04690B587B000AF00F027FD1A4B11
S11354B0181C00F005FD194B181C00F001FD184BD9
S11354C01B8801339AB2164B1A80154B1B88181C83
S11354D000F0F6FC00F01AFD3B1C181C0021002211
S11354E000F02CFD0E4B1A883C1C17343B1C101C7E
S11354F0191C642201F084F9031C23703B1C17332C
S11355001B78181C01F014F93B1C17331B78181C6A
S1135510BD4607B090BDC046BC6700000101000055
S11355208A02002090B589B000AF78603B1C1E331E
S113553000221A7000F0E2FC334B181C00F0C0FC8F
S1135540324B181C00F0BCFC314B1B8801339AB25F
S11355502F4B1A802E4B1B88181C00F0B1FC7B6863
S1135560181C00F0BDFC00F0D1FC3B1C0833181CD7
S11355700021002200F0E2FC254B19883C1C1F345A
S11355803A1C0832FA239B00081C111C1A1C01F057
S113559037F9031C23703B1C1F331B78002B07D1E6
S11355A03A1C08323B1C1E33101C191C00F0C8FDA9
S11355B03B1C0833181C00F023FD031C002B07D1EF
S11355C03B1C0833181C00F00DFD031C002B0DD0F0
S11355D03B1C1F3317221A703B1C1F331B78181CEB
S11355E001F0A6F83B1C1E331B7808E03B1C1F335C
S11355F01B78181C01F09CF83B1C1E331B78181CEC
S1135600BD4609B090BDC046BC6700000102000061
S11356108A02002090B589B000AF78603B1C1E332D
S113562000221A7000F06AFC344B181C00F048FC8D
S1135630334B181C00F044FC324B1B8801339AB2E4
S1135640304B1A802F4B1B88181C00F039FC00F0DB
S11356505DFC3B1C0833181C0021002200F06EFC8A
S1135660284B19883C1C1F343A1C0832FA239B002F
S1135670081C111C1A1C01F0C3F8031C23703B1CEA
S11356801F331B78002B0ED13A1C08327B68101C88
S1135690191C00F0BFFC3A1C08323B1C1E33101CC2
S11356A0191C00F04DFD3B1C0833181C00F0A8FC2D
S11356B0031C002B07D13B1C0833181C00F092FC80
S11356C0031C002B0DD03B1C1F3317221A703B1CEC
S11356D01F331B78181C01F02BF83B1C1E331B785E
S11356E008E03B1C1F331B78181C01F021F83B1CFD
S11356F01E331B78181CBD4609B090BDBC67000062
S1135700050300008A02002090B58BB000AFF8605A
S1135710B9607A603B603B1C263300221A7000F0AB
S1135720EDFB3A4B181C00F0CBFBC1239B00181C6B
S113573000F0C6FB364B1B8801339AB2344B1A80F7
S1135740334B1B88181C00F0BBFBFB68181C00F0D3
S113575053FBBB68181C00F04FFB7B68181C00F05F
S11357604BFB3B68181C00F047FB00F0CFFB3B1CD5
S11357701033181C0021002200F0E0FB244B198890
S11357803C1C27343A1C1032FA239B00081C111CC1
S11357901A1C01F035F8031C23703B1C27331B78BB
S11357A0002B07D13A1C10323B1C2633101C191C49
S11357B000F0C6FC3B1C1033181C00F021FC031C39
S11357C0002B07D13B1C1033181C00F00BFC031CEE
S11357D0002B0DD03B1C273317221A703B1C273398
S11357E01B78181C00F0A4FF3B1C26331B7808E030
S11357F03B1C27331B78181C00F09AFF3B1C2633F4
S11358001B78181CBD460BB090BDC046BC67000099
S11358108A02002090B589B000AF786039603B1CE3
S11358201E3300221A7000F069FB354B181C00F07F
S113583047FB344B181C00F043FB334B1B880133EC
S11358409AB2314B1A80304B1B88181C00F038FB7D
S11358507B68181C00F0D0FA3B68181C00F0CCFAE6
S113586000F054FB3B1C0833181C0021002200F0FC
S113587065FB254B19883C1C1F343A1C0832234B0A
S1135880081C111C1A1C00F0BBFF031C23703B1CDA
S11358901F331B78002B07D13A1C08323B1C1E33E4
S11358A0101C191C00F04CFC3B1C0833181C00F0A5
S11358B0A7FB031C002B07D13B1C0833181C00F06A
S11358C091FB031C002B0DD03B1C1F3317221A70B5
S11358D03B1C1F331B78181C00F02AFF3B1C1E3393
S11358E01B7808E03B1C1F331B78181C00F020FFBA
S11358F03B1C1E331B78181CBD4609B090BDC04626
S1135900BC670000010300008A0200208813000025
S113591090B589B000AF021CBB1D1A803B1C1E331E
S113592000221A7000F0EAFA334B181C00F0C8FA8F
S1135930324B181C00F0C4FA314B1B8801339AB265
S11359402F4B1A802E4B1B88181C00F0B9FABB1D74
S11359501B88181C00F0B4FA00F0D8FA3B1C08337A
S1135960181C0021002200F0E9FA254B19883C1C80
S11359701F343A1C0832FA239B00081C111C1A1C01
S113598000F03EFF031C23703B1C1F331B78002BCD
S113599007D13A1C08323B1C1E33101C191C00F0A2
S11359A0CFFB3B1C0833181C00F02AFB031C002B04
S11359B007D13B1C0833181C00F014FB031C002BFC
S11359C00DD03B1C1F3317221A703B1C1F331B784E
S11359D0181C00F0ADFE3B1C1E331B7808E03B1C7A
S11359E01F331B78181C00F0A3FE3B1C1E331B78CE
S11359F0181CBD4609B090BDBC670000250300001B
S1135A008A02002080B584B000AF3B1D19605A6043
S1135A103B1C0E33021C1A8000F070FA0B4B181C4E
S1135A2000F04EFA0A4B181C00F04AFA3B1C0E33E5
S1135A301B88181C00F044FA3B1D1868596800F0D4
S1135A40FDF900F063FABD4604B080BDF31C00000C
S1135A501103000080B500AFFFF778FB031C181C8E
S1135A60BD4680BD80B582B000AFFB1D181CFFF79A
S1135A707DFAFB1D1B78181CBD4602B080BDC046D4
S1135A8080B582B000AF021CFB1D1A70FB1D1B7891
S1135A90181CFFF7DFFA0123181CBD4602B080BDB5
S1135AA080B500AFC046054B1B78DBB2002BFAD0A3
S1135AB0024B00221A70BD4680BDC046AA0B0020CE
S1135AC080B500AF024B1B68181CBD4680BDC046A4
S1135AD0AC0B002080B500AFFFF7F2FF031C181CCD
S1135AE0BD4680BD80B58AB000AF786000F0D8FBB9
S1135AF096231B023B623B1C0C33962212021A6053
S1135B003B1C0C33E12252025A603B1C0C333A6AB0
S1135B109A6000237B62FFF7D3FF031CFB6127E03D
S1135B207B6A181C0321FCF723FB0B1C1A1C3B1C6F
S1135B300C339200D358BB617B6A01337B62FFF75D
S1135B40B1FC031C002B13D1BA693B6A9A420DD0F5
S1135B503B6A181CFFF7E6FC031C002B06D0FFF77A
S1135B60A1FC031C002B01D000230AE0012308E060
S1135B70FFF7A6FF021CFB69D21A7B689A42CFD3B7
S1135B800023181CBD460AB080BDC04680B584B051
S1135B9000AF786039603B1C08333A681A603B6890
S1135BA0181C01F05BFA021C3B1C08335A607B682A
S1135BB09AB23B1C0833101C19685A68FFF722FF7D
S1135BC0BD4604B080BDC04680B582B000AFFFF7CB
S1135BD089FF031C002B16D00C4B7B603B1D181C4B
S1135BE0FFF718FDE123DB00181CFFF791FE0848BE
S1135BF00849094A094BFFF787FD054A084B101C61
S1135C00191CFFF707FEBD4602B080BDCC8600001C
S1135C10D4860000E0860000E8860000F0860000DC
S1135C20F886000080B500AFFFF74AFF021C094B5D
S1135C301A60FFF745FF021C064B1B68D21A064B7D
S1135C409A4205D9034B1B6803495A18014B1A6041
S1135C50BD4680BD8C0200201027000080B584B0B2
S1135C6000AF3B1D19605A603B1C0E33021C1A80A6
S1135C703B1D1A683B1D5B68D31800221A70BD4691
S1135C8004B080BD80B582B000AF021CFB1D1A7049
S1135C90FB1D1B78052B04D1034B0120191CFFF7B6
S1135CA075FFBD4602B080BD0887000080B582B094
S1135CB000AF021CFB1D1A70FB1D1B78162B04D8A9
S1135CC09A00044BD3181B689F46C046BD4602B0D9
S1135CD080BDC046A087000080B500AF034B034AD7
S1135CE0126880210A431A60BD4680BD000004404A
S1135CF080B582B000AF021CBB1D1A80034BBA1DD5
S1135D0012881A80BD4602B080BDC046A40B002094
S1135D1080B500AFFEF768F8021C8023DB009A42CE
S1135D2002D10E4B01221A70FEF75EF8021C80238A
S1135D305B029A4210D10A4A09490A4BCB58012105
S1135D401943084BD150084B074A126880210A4373
S1135D501A60054BC1221A60BD4680BDA00B00200D
S1135D6000700440381000000000044080B500AF0B
S1135D70024B01221A70BD4680BDC046AA0B00200A
S1135D8080B500AF72B6FFF751FBBD4680BDC0467B
S1135D9080B500AF0A4B1B889BB201339AB2084B03
S1135DA01A80084B1B889BB201339AB2054B1A80A8
S1135DB0054B1B685A1C044B1A60BD4680BDC04687
S1135DC0A80B0020B00B0020AC0B002080B582B0E3
S1135DD000AF7860024B01221A70BD4602B080BD4C
S1135DE0A60B002080B500AF024B01221A70BD46FD
S1135DF080BDC046A00B002080B584B000AF7860A1
S1135E007B68002B06D10C4B181C012100F086F88E
S1135E10031C0DE07B68181C01F020F9031C0133FE
S1135E20FB607A68FB68101C191C00F077F8031CEF
S1135E30181CBD4604B080BD1887000080B584B02E
S1135E4000AF3B1C186059603B1C5B680233FB606D
S1135E503B1C5B689BB2181C00F032F83B1C1A68B0
S1135E603B1C5B68101C191C00F058F8FB68181CDC
S1135E70BD4604B080BDC04680B582B000AF021CF0
S1135E80FB1D1A70FB1D1B785A1E9341DBB2181CB4
S1135E9000F006F8031C181CBD4602B080BDC046C5
S1135EA080B582B000AF021CFB1D1A70FB1D181CCC
S1135EB0012100F033F8031C181CBD4602B080BD5C
S1135EC080B582B000AF021CBB1D1A80BB1D181C1C
S1135ED0022100F023F8031C181CBD4602B080BD4B
S1135EE080B582B000AF78603B1D181C042100F01F
S1135EF015F8031C181CBD4602B080BD80B500AF68
S1135F0000F0D2FA0123181CBD4680BD80B500AF55
S1135F1000F0D8FA0123181CBD4680BD80B582B0BC
S1135F2000AF786039607A683B68101C191C00F077
S1135F3037FB031C181CBD4602B080BD80B584B07D
S1135F4000AFF860B9607A60FB68BA681A60FB68F1
S1135F507A685A60FB68181C00F012F8BD4604B059
S1135F6080BDC04680B582B000AF78607B680022F7
S1135F70DA607B6800221A74BD4602B080BDC04658
S1135F8080B582B000AF78607B680022DA607B68FD
S1135F90DA687B689A607B6800221A74BD4602B096
S1135FA080BDC04680B584B000AFF860B9607A6047
S1135FB0FB68BA681A60FB687A685A60FB68181C48
S1135FC0FFF7DEFFBD4604B080BDC04680B582B099
S1135FD000AF786039607B683A689A60BD4602B069
S1135FE080BDC04680B582B000AF78607B689A6897
S1135FF07B68DB68D31A181CBD4602B080BDC0465E
S113600080B582B000AF78607B681B7C181CBD46ED
S113601002B080BD80B584B000AF786039607B6821
S11360201A687B68DB68D318FB60FB68181C01F0F6
S113603015F8031C0133BB607B68181CFFF7D2FF03
S1136040021CBB689A420AD23B68002B02D03B6810
S11360500B4A1A607B6801221A7400230CE03B6827
S1136060002B02D03B68FA681A607B68DA68BB6868
S1136070D2187B68DA60BB68181CBD4604B080BDCA
S11360801C87000080B584B000AF786039607A68FE
S11360903B1C0E33101C191C00F08AF8031C002B47
S11360A00AD13B68002B05D03B68181C002108224C
S11360B000F07EFF00230BE03B1C0E331B88796845
S11360C03A68081C111C1A1C00F006F8031C023361
S11360D0181CBD4604B080BD80B584B000AFF86024
S11360E0B9607A60FB68181CFFF77CFF021C7B68B0
S11360F09A420DD2BB68002B05D0BB68181C002146
S1136100082200F055FFFB6801221A74002313E0F3
S1136110BB68002B09D0FB681A68FB68DB68D218DF
S1136120BB681A60BB687A685A60FB68DA687B6887
S1136130D218FB68DA607B68181CBD4604B080BDC9
S113614080B584B000AF786039607A683B1C0F3347
S1136150101C191C00F01AF8031C002B07D13B6813
S1136160002B02D03B6800221A70002309E03B1C7C
S11361700F331B785A1E9341DBB21A1C3B681A700A
S11361800123181CBD4604B080BDC04680B582B052
S113619000AF786039607A683B68101C191C0122D2
S11361A000F02AF8031C181CBD4602B080BDC0468E
S11361B080B582B000AF786039607A683B68101CA3
S11361C0191C022200F018F8031C181CBD4602B06A
S11361D080BDC04680B582B000AF786039607A680F
S11361E03B68101C191C042200F006F8031C181C40
S11361F0BD4602B080BDC04680B584B000AFF86033
S1136200B9607A60FB68181CFFF7ECFE021C7B681F
S11362109A420BD2BA687B68101C00211A1C00F049
S1136220C7FEFB6801221A74002315E0BB68002B2B
S11362300BD0FB681A68FB68DB68D218B9687B6806
S1136240081C111C1A1C00F0F8FEFB68DA687B6855
S1136250D218FB68DA607B68181CBD4604B080BDA8
S113626080B582B000AF78607B6800221A70BD46AA
S113627002B080BD80B582B000AF78600A1CFB1C00
S11362801A707B681A78FB1C1B785340DBB2034AF4
S1136290D25C7B681A70BD4602B080BDFC870000EA
S11362A080B500AF074B181C0021272200F080FEA8
S11362B0044A23230021D154024A26230121D15424
S11362C0BD4680BD9002002080B500AF054A222360
S11362D0D35C01229A429B415B42DBB2181CBD464F
S11362E080BDC0469002002080B582B000AF4F4A06
S11362F02323D35C032B00D084E04C4A2223D35CB9
S1136300002B00D17EE08DE0FFF7ACFB021CFB1DEF
S11363101A70464A2323D35C012B11D002DC002BD4
S113632005D074E0022B3CD0032B62D06FE0FB1D40
S11363301B78AA2B68D13D4A23230121D15463E061
S1136340FB1D1B78CC2B04D1384A23230221D154C2
S11363505DE0FB1D1B78BB2B04D1344A23230321AE
S1136360D1545FE0314A2123D35C1A1C2F49F81D14
S1136370007888540133D9B22C4A2123D1542B4AB2
S11363802123D25C1F231340D9B2284A2123D1549C
S1136390264A2223D35C0133D9B2244A2223D1547E
S11363A035E0FB1DFA1D1278D2431A701F4A2123CF
S11363B0D35C1A1C1D49F81D007888540133D9B2E6
S11363C01A4A2123D154194A2123D25C1F23134092
S11363D0D9B2164A2123D154144A2223D35C01335F
S11363E0D9B2124A2223D154104A23230121D15471
S11363F00DE0FB1D1B78AA2B08D10C4A2323012195
S1136400D15403E0C04602E0C04600E0C046FFF7B6
S113641021FB031C002B05D0044A2223D35C1F2B31
S113642000D871E7BD4602B080BDC046900200208E
S113643080B582B000AF021CFB1D1A70184AFB1D08
S11364401B78101C191CFFF715FFFB1D1B78AA2BCA
S113645014D0FB1D1B78BB2B10D0FB1D1B78CC2B41
S11364600CD0104A2623D35C002B0FD0FB1D1B78C5
S1136470112B03D0FB1D1B78132B07D1CC20FFF766
S1136480FFFAFB1DFA1D1278D2431A70FB1D1B780C
S1136490181CFFF7F5FA031C181CBD4602B080BD9A
S11364A0B50200209002002080B500AF044B181CF8
S11364B0FFF7D6FEAA20FFF7E3FABD4680BDC0462B
S11364C0B502002080B500AF064A2523D35C181C12
S11364D0FFF7AEFFBB20FFF7D3FAFFF7E1FABD46A3
S11364E080BDC0469002002080B500AF084A232337
S11364F0D35C032B06D1FFF7E7FE031C002B01D16D
S1136500012300E00023DBB2181CBD4680BDC04659
S11365109002002080B582B000AFFFF7E5FF031CB6
S1136520002B01D1002332E0FB1D1B4924228A5C8D
S11365301A70194A2023D35C191CBA1D1648415CF1
S113654011700133D9B2144A2023D154124A2023A2
S1136550D25C1F231340D9B20F4A2023D1540E4AD0
S11365602223D35C013BD9B20B4A2223D1540B4BD7
S1136570181CFFF775FE084A23230021D154BA1DC5
S1136580FB1D12781B78D31A5A425341DBB2181CF4
S1136590BD4602B080BDC04690020020B402002077
S11365A080B584B000AF786039600023FB600DE0F3
S11365B07B681B787A6801327A60181CFFF738FF11
S11365C0031C002B0CD0FB680133FB603B685A1E94
S11365D09341DBB23A68013A3A60002BE8D100E01B
S11365E0C046FB68181CBD4604B080BD80B500AF32
S11365F0FFF77AFEFFF768FE031C002B04D0044A61
S11366002223D35C013B00E00023181CBD4680BD5F
S11366109002002080B582B000AFFFF765FE194AF2
S11366202223D35C012B02D801235B4226E0154AC6
S11366302023D35C191CFA1D1248415C11700133EC
S1136640D9B2104A2023D1540E4A2023D25C1F23EE
S11366501340D9B20B4A2023D1540A4A2223D35CD3
S1136660013BD9B2074A2223D154074AFB1D1B78A8
S1136670101C191CFFF7FEFDFB1D1B78181CBD46E2
S113668002B080BD90020020B402002090B585B015
S113669000AF786039607B68181CFFF771FCFFF766
S11366A019FA031CFB600BE01F4B1C68FFF7B2FFD9
S11366B0031CDAB21D4B1A55621C1B4B1A6000E016
S11366C0C046FFF793FF031C002BEDD1FFF70CFF2F
S11366D0031C002B1BD0144B1B68BB60124B002205
S11366E01A60FFF717FF031C002B10D079680F4ABC
S11366F080231B01081C111C1A1CFFF753FC7A6829
S1136700BB68101C191CFFF761FC012308E0FFF7AC
S1136710E1F9021CFB68D21A3B689A42D0D30023E9
S1136720181CBD4605B090BDB80A0020B802002070
S113673080B582B000AF021CFB1D1A70034BFA1D1A
S113674012781A70BD4602B080BDC046B20B00205C
S113675080B584B000AF78607A683B1C0E33101C9F
S1136760191CFFF725FD3B1C0E331A88214B9A4256
S113677005D03B1C0E331A881F4B9A4233D17A68DA
S11367803B1C0C33101C191CFFF712FD3B1C0E3371
S11367901A88184B9A421DD17A683B1C0A33101C84
S11367A0191CFFF705FDFFF7A9FB144B181CFFF795
S11367B087FB3B1C0A331B88181CFFF781FB3B1C1F
S11367C00C331A887B68101C191C00F0AFFAFFF711
S11367D09DFB0AE03B1C0C331A887B68101C191CB7
S11367E000F0A4FA01E0002300E00123181CBD46D8
S11367F004B080BDBC670000F31C000012A50000BB
S113680080B586B000AFB9607A603B1C0E33021CC1
S11368101A80284B1B68002B02D0264B1B687B6018
S11368203B1C173311221A7033E03B1C1433002233
S11368301A80BA683B1C1433101C191CFFF7B8FCEF
S11368403B1C14331A881C4B9A421AD13B1C12333A
S113685000221A80BA683B1C1233101C191CFFF763
S1136860A7FC3B1C12331B883A1C0E3212889A4236
S11368700FD1BA683B1C1733101C191CFFF786FC98
S113688010E0BB68181CFFF76DFBBB68181CFFF712
S11368905FFFBA687B68101C191CFFF7F7FE031C26
S11368A0002BC2D13B1C17331B78181CBD4606B005
S11368B080BDC046BC0A002012A5000080B586B089
S11368C000AF3B1D181C00210022FFF737FB03E03B
S11368D03B1D181CFFF73CFF3B1D181C0021FFF754
S11368E0D5FE031C002BF3D1BD4606B080BDC046C7
S11368F080B500AF0023181CBD4680BD80B584B0B0
S113690000AFF860B9607A603B600023181CBD4694
S113691004B080BD80B584B000AFF860381D01605C
S113692042603B600023181CBD4604B080BDC046D5
S113693080B500AF0023181CBD4680BD80B500AFF4
S1136940BD4680BD80B582B000AF78600020FFF7FF
S1136950A7FABD4602B080BD90B585B000AF78609F
S11369603C1C0F34FFF7C4FF031C23700020FFF707
S113697097FA3B1C0F331B78181CFFF77DFABD46B2
S113698005B090BD90B585B000AF78607A683B1CC7
S11369900C33101C191CFFF70BFC7B68181CFFF749
S11369A02FFB031C002B06D17B68181CFFF71AFB76
S11369B0031C002B03D01520FFF772FA12E03B1CD6
S11369C00C331B883C1C0F34181C00F0CBF9031C3F
S11369D023700020FFF764FA3B1C0F331B78181C4C
S11369E0FFF74AFABD4605B090BDC04680B586B0F3
S11369F000AF78607A683B1C1633101C191CFFF733
S1136A00D7FB7A683B1C0C33101C191CFFF73AFBAC
S1136A107B68181CFFF7F4FA031C002B10D17B6869
S1136A20181CFFF7DFFA031C002B09D13B1C16339B
S1136A301A883B1C0C33101C19685A68FFF70EF9AE
S1136A40BD4606B080BDC04680B584B000AF786056
S1136A507A683B1C0F33101C191CFFF797FB7B68EB
S1136A60181CFFF7CDFA031C002B0CD17B68181CF3
S1136A70FFF7B8FA031C002B05D13B1C0F331B781E
S1136A80181CFFF7FFF8BD4604B080BD80B584B084
S1136A9000AF78607A683B1C0F33101C191CFFF799
S1136AA075FB7B68181CFFF7ABFA031C002B0CD199
S1136AB07B68181CFFF796FA031C002B05D13B1CBE
S1136AC00F331B78181CFFF7F1F8BD4604B080BDE6
S1136AD0B0B58AB002AF78607A683B1C1833101CDA
S1136AE0191CFFF797FA7A683B1C1433101C191C05
S1136AF0FFF770FB7A683B1C1033101C191CFFF75E
S1136B0089FA7A683B1C0C33101C191CFFF782FAB3
S1136B107A683B1C0833101C191CFFF77BFA7B684E
S1136B20181CFFF76DFA031C002B06D17B68181C98
S1136B30FFF758FA031C002B03D01520FFF7B0F918
S1136B4014E0B86979693A69FB68BD683C1C1F3474
S1136B500095FFF7D3FE031C23700020FFF7A0F974
S1136B603B1C1F331B78181CFFF786F9BD4608B081
S1136B70B0BDC046B0B588B000AF78607A683B1C41
S1136B801833101C191CFFF725FB7A683B1C1033C3
S1136B90101C191CFFF776FA7A683B1C0C33101C86
S1136BA0191CFFF717FB7B68181CFFF729FA031C55
S1136BB0002B06D17B68181CFFF714FA031C002B6A
S1136BC003D01520FFF76CF916E0BA69FD683C1C88
S1136BD01F343B1C1033101C19685A682B1CFFF718
S1136BE099FE031C23700020FFF75AF93B1C1F3346
S1136BF01B78181CFFF740F9BD4608B0B0BDC0466D
S1136C0090B585B000AF78603C1C0F34FFF790FE60
S1136C10031C23700020FFF743F93B1C0F331B7840
S1136C20181CFFF729F9BD4605B090BD80B582B0A8
S1136C3000AF7860FFF782FE0020FFF731F9BD4610
S1136C4002B080BD80B582B000AF021CBB1D1A80AB
S1136C50BB1D1B88224A934231D0214A934212DC45
S1136C60C1225200934224D0C1225200934203DC39
S1136C701C4A93421BD02EE01B4A93421BD01B4A52
S1136C8093421AD027E01A4A93421ED0184A9342DC
S1136C9006DC184A934214D0174A934213D01AE0E0
S1136CA0164A934213D0164A934212D013E0154B5E
S1136CB012E0154B10E0154B0EE0154B0CE0154B94
S1136CC00AE0154B08E0154B06E0154B04E0154BA4
S1136CD002E0154B00E00023181CBD4602B080BD45
S1136CE0120400008101000083010000110400006F
S1136CF04204000021040000410400004304000099
S1136D0044040000456900005969000085690000D9
S1136D10496A0000ED6900008D6A0000D16A000034
S1136D20756B0000016C00002D6C000080B584B010
S1136D3000AF021C3960BB1D1A80BB1D1B88181CC8
S1136D40FFF780FF031CFB60FB68002B05D03A684B
S1136D50FB68101C9847002300E01323181CBD4651
S1136D6004B080BD80B582B000AF021CBB1D1A8088
S1136D70BB1D1B88181CFFF765FF031C5A1E93419B
S1136D80DBB2181CBD4602B080BDC04638B5051C38
S1136D9001F004FC01F0E8FB084C2368002B02D04E
S1136DA0984700202060064C2168002902D08847BB
S1136DB000222260281CFEF751FB38BDC00A0020C7
S1136DC0C40A0020F0B587B0059101930D990E9B7C
S1136DD0009200220A60071C1A60904216DB012808
S1136DE014D0242812DC0598904207DD009C0198F9
S1136DF0111CA0470126041C351C02E0141C161C9F
S1136E00402500220392974209D002E0141C161C6C
S1136E10402501214842391CFBF766F90390002301
S1136E20029304930598864200DD9EE0621C00D123
S1136E309BE06022154200D097E0681E0F28F1D82D
S1136E40FBF73EF9082EF03FF0F0F052F0F0F0F0CE
S1136E50F0F0F052201C01F05FF9021E09D000216D
S1136E60009C01980A1CA047041C0498013004905B
S1136E70D8E72B2C07D1009D0198111CA847013697
S1136E80041C0225CEE702252D2CCBD1111C019820
S1136E90009B98470D9901220136041C0A60C1E742
S1136EA0002F02D00825102FBCD10825302CB9D1D1
S1136EB00021009C01980A1CA0470136041C0425EB
S1136EC0B0E7582C01D0782C09D1002101980A1C74
S1136ED0009B98470136041C08251027A2E71025BB
S1136EE0002F9FD108279DE7002F00D10A27039880
S1136EF0002805D101225042391CFBF7F5F8039014
S1136F00201C3038092802D8B84211DB0BE0201CC1
S1136F1001F0F2F8002806D0201C01F01DF9011C34
S1136F203639B94203DD102D1DD120257AE73738D3
S1136F30029D039C0123A54201D80E9B1B68029A63
S1136F40C5B27A43D1438D4200D901230E9C8018E7
S1136F50002123600290009D01980A1CA847013675
S1136F60041C10255EE740255CE734273D4003D12F
